:020000040800F2
:1000000068160020C90100088B2D00082127000870
:10001000892D0008690300086B4B000800000000F0
:10002000000000000000000000000000A3300008F5
:100030004704000800000000A1300008A5300008B7
:10004000E3010008E3010008E3010008E301000800
:10005000E3010008E3010008E3010008E3010008F0
:10006000E3010008E3010008E3010008E3010008E0
:1000700005040008E3010008E3010008110400087A
:10008000E3010008E3010008E3010008E3010008C0
:10009000F54A0008E3010008E3010008E301000855
:1000A000E3010008E3010008E3010008E3010008A0
:1000B00021310008E3010008E3010008E301000822
:1000C000E3010008E3010008E3010008E301000880
:1000D000E3010008E3010008E3010008E301000870
:1000E000E3010008E3010008E301000800F002F862
:1000F00000F05AF80AA090E8000C82448344AAF168
:100100000107DA4501D100F04FF8AFF2090EBAE865
:100110000F0013F0010F18BFFB1A43F0010318473B
:10012000384F0000584F00000A444FF0000C10F800
:10013000013B13F0070408BF10F8014B1D1108BF65
:1001400010F8015B641E05D010F8016B641E01F805
:10015000016BF9D113F0080F1EBF10F8014BAD1C55
:100160000C1B09D16D1E58BF01F801CBFAD505E073
:1001700014F8016B01F8016B6D1EF9D59142D6D3CD
:10018000704700000023002400250026103A28BFF5
:1001900078C1FBD8520728BF30C148BF0B607047F9
:1001A0001FB51FBD10B510BD00F08AF81146FFF74E
:1001B000F7FF04F063FD00F0A8F803B4FFF7F2FFC7
:1001C00003BC00F0AFF80000094880470948004729
:1001D000FEE7FEE7FEE7FEE7FEE7FEE7FEE7FEE7F7
:1001E000FEE7FEE704480549054A064B7047000054
:1001F0001F310008ED00000868100020681600207C
:10020000681200206812002010B5203AC0F00B8060
:10021000B1E81850203AA0E81850B1E81850A0E80A
:100220001850BFF4F5AF5FEA027C24BFB1E8185064
:10023000A0E8185044BF18C918C0BDE810405FEAD4
:10024000827C24BF51F8043B40F8043B08BF704750
:10025000D20728BF31F8023B48BF11F8012B28BF55
:1002600020F8023B48BF00F8012B70474FF0000216
:1002700000B5134694469646203922BFA0E80C509C
:10028000A0E80C50B1F12001BFF4F7AF090728BF77
:10029000A0E80C5048BF0CC05DF804EB890028BFF3
:1002A00040F8042B08BF704748BF20F8022B11F01C
:1002B000804F18BF00F8012B704770477047704798
:1002C000754600F02BF8AE4605006946534620F00F
:1002D0000700854618B020B5FFF784FFBDE8204031
:1002E0004FF000064FF000074FF000084FF0000BF2
:1002F00021F00701AC46ACE8C009ACE8C009ACE8A5
:10030000C009ACE8C0098D46704710B50446AFF38C
:1003100000802046BDE81040FFF74FBF00487047FF
:100320000810002001491820ABBEFEE7260002009D
:100330007047000070B50A4D04460020A8600C21EB
:10034000084802F037F902E0012000F08FF9A868B0
:10035000A042F9DBBDE870400C21024802F08CB9E4
:1003600000000020B8060020FEE7002070470020B3
:10037000704700000B480C49D0F8B8220020135CED
:100380000B54401CC0B20428F9D30878012806D1C8
:1003900006484A7802708A784270C97881700020D5
:1003A000704700002C0800200401002003000020FA
:1003B000102823D2DFE800F0220A1016220C1218AF
:1003C000080E141A221C1E200020704701207047BE
:1003D00002207047032070470420704705207047B3
:1003E0000620704707207047082070470920704793
:1003F0000E2070470F207047102070474FF0FF30DD
:1004000070470000014800F021B80000A407002058
:10041000014800F01BB80000E807002030B590F854
:1004200040500124AC40C56B6C6004686360436855
:10043000102B036803D099600068C26030BD9A60D9
:100440000068C16030BD704772B6FEE72DE9F05F0D
:10045000C16B0C6801680B68D0F840C0042202FA36
:100460000CF2494DDFF824A1494E4A4FDFF828B17C
:10047000DFF828E122422CD05A072AD50A689206D2
:1004800003D40A6822F004020A600168A94201D17B
:10049000042219E0514501D1402215E0B14202D1B8
:1004A0004FF4806210E0B94202D14FF480420BE079
:1004B000594502D14FF4802206E0714502D14FF434
:1004C000800201E04FF080622F4908394A60C16A1A
:1004D0003BE04FF0020808FA0CF818EA040F4FF05E
:1004E00000094FF0010235D05FEA837832D50B68FE
:1004F0009B0605D40B6823F00A030B6080F82120CB
:100500000168A94201D1022219E0514501D12022FE
:1005100015E0B14202D14FF4007210E0B94202D1AD
:100520004FF400520BE0594502D14FF4003206E07F
:10053000714502D14FF4001201E04FF000721249F0
:1005400008394A6080F82090816A00291AD0BDE8F5
:10055000F05F0847082505FA0CF5254212D01B0765
:1005600010D50B6823F00E030B6090F84010C36B9E
:1005700002FA01F15960826380F8212080F820900E
:10058000016BE2E7BDE8F09F080002401C0002405A
:100590003000024044000240580002406C0002401B
:1005A00030B528B308C8134914221944B1FBF2F13D
:1005B0008900C16310498163022141771A6843F6BB
:1005C000F0718A43D0E900142143D0E902452C435D
:1005D0002143046921434469214384692143114330
:1005E000196000214163012242770177084630BD3E
:1005F000012030BDF8FFFDBF0000024070B5044689
:1006000090F82000002501280CD0012084F820005B
:1006100094F821600020012E06D084F820000225E5
:10062000284670BD022070BD022684F82160A063B8
:100630002068066826F0010606602046FFF7EEFEF9
:10064000E06A00282068016802D041F00E0106E04F
:1006500021F0040101602068016841F00A01016095
:100660002068016841F001010160D9E770B50446D6
:1006700000F008F90546601C02D0044800780444E4
:1006800000F000F9401BA042FAD370BD2800002002
:100690002DE9F84FDFF8B891002409F1040A0AF1B6
:1006A000040B23460F270BF1040EC9E00125A540DA
:1006B0002A40AA427DD1674ED1F804C0ACEB0608AF
:1006C000B44532D014DCBCF1030F3AD009DCBCF1E4
:1006D000000F2AD0BCF1010F1CD0BCF1020F31D1A8
:1006E0001DE0BCF1110F17D0BCF1120F2AD119E097
:1006F000B8F5881F19D006DCB8F5803F15D0B8F5DD
:10070000801F1FD111E0B8F5001F0ED0B8F5041FEF
:1007100018D10AE0CB6815E0CB681B1D12E0CB684E
:1007200008330FE0CB680C330CE08B682BB1012B46
:100730004FF0080303D0456104E0042302E00561A3
:1007400000E00023FF2A01D8064601E000F104067C
:100750004FEA840501D9A5F12005D6F8008007FAF3
:1007600005FC28EA0C0803FA05F548EA0508C6F86E
:1007700000804D68ED0062D5374DAE6946F0010648
:10078000AE61AD6924F0030605F001050095334D17
:1007900006EB050CDCF80850A607360F07FA06F83A
:1007A00025EA0805DFF8B880404503D14FF000087E
:1007B00017E044E0DFF8AC80404502D14FF001087B
:1007C0000FE0DFF8A480404502D14FF0020808E0B6
:1007D000DFF89880404502D14FF0030801E04FF068
:1007E000040808FA06F848EA0508CCF808804D68BD
:1007F000D9F80060ED034D4601D5164300E096435D
:100800002E604D68DAF80060AD03554601D51643F9
:1008100000E096432E604D68DBF80060ED025D4617
:1008200001D5164300E096432E604D68DEF8006067
:10083000AD02754601D5164300E096432E60641C58
:100840000D682A46E5407FF431AFBDE8F88F00001F
:10085000000401400000111000100240000001409F
:1008600000080140000C014000100140001401404C
:100870008068084000D0012070470AB101617047CC
:100880000904FBE701488068704700002800002049
:1008900070B5040025D094F83D00002520B984F8F7
:1008A0003C50204600F070FA242084F83D00206877
:1008B000016821F0010101602068016841F40041F4
:1008C00001602068016821F40041016001F0F4F842
:1008D0004D4A6168914201D84C4900E04C49884238
:1008E00001D2012070BD4B492368B0FBF1F15E6875
:1008F00026F03F060E435E606368934206D94FF4CC
:10090000967359434FF47A73B1FBF3F12368491C92
:100910001E6A26F03F06314319626168914210D881
:100920004900401EB0FBF1F2521CC2F30B02042A34
:1009300001D2042022E0B0FBF1F0401CC0F30B0018
:100940001CE0A268F2B301EBC10303EB0116431EE6
:10095000B3FBF6F35B1C43F480431B0549D092B311
:1009600001EBC10202EB0111401EB0FBF1F0401C93
:10097000C0F30B0040F4804040F400402168CA6995
:100980004CF6FF739A431043C861D4E90710014342
:100990002068026822F0C00211430160D4E903011B
:1009A00001432068826848F2FF339A431143816013
:1009B000D4E9050108432168CA6822F0FF02104308
:1009C000C86001E00EE016E02068016841F0010116
:1009D00001602564202084F83D00256384F83E50A2
:1009E000002070BD01EB4106431EB3FBF6F35B1C18
:1009F000B3E70120C2E701EB4101401EB0FBF1F07B
:100A0000401CC0F30B00B7E7A086010080841E00E5
:100A100000093D0040420F002DE9F84F0025DDF8A8
:100A20002890984617468A4604460095FFF72AFF05
:100A3000064694F83D0020287AD1192301228349E3
:100A40002046009601F06EFF0028F5D194F83C0096
:100A500001286DD0012084F83C0020680168C90796
:100A600003D1016841F0010101602068016821F4AF
:100A700000610160222084F83D00102084F83E00CF
:100A800025646762A4F82A80608D20857048E06242
:100A900033464A465146204601F05AFE00287DD191
:100AA000208DDFF8B081202768B1012814D00228FA
:100AB000206801681ED041F48061016020684169AE
:100AC00080690090B5E02068416981690091016802
:100AD00041F400710160ACE02068016821F480619C
:100AE000016072B62068416981690091016841F432
:100AF00000710AE041F40061016072B6206841694A
:100B000081690091016821F48061016062B690E022
:100B1000032868D801280CD002284B464FF0000269
:100B20004146204600960FD001F0FCFEB0BB10E01D
:100B30008AE032464946204601F073FF70BB2068C8
:100B40000069616A08706BE001F0ECFE30BB72B6C0
:100B500034E02068016821F48061016072B6206889
:100B60000069616A0870606A401C6062208D401EE6
:100B70002085608D401E6085374846F2A8110068C8
:100B8000B0FBF1F0C0EBC00000EB80000090401E15
:100B9000009008D020684069C04300E029E0400789
:100BA0000CD50098F3E744F8305F6773A5732069AC
:100BB00040F02000206162B625731AE020680168C9
:100BC00041F40071016020680069616A0870606A20
:100BD000401C6062218D491E2185618D491E618501
:100BE00062B621681AE032464946204601F019FFF4
:100BF00010B10120BDE8F88F20680069616A0870B3
:100C0000606A401C6062218D491E2185618D491EEC
:100C1000618521684A69D24352070AD40969017083
:100C2000606A401C6062208D401E2085608D401EE1
:100C30006085208D00287FF46BAF84F83D7084F8C8
:100C40003E5084F83C50D5E70220D3E70200100064
:100C50000000FFFF04000100340000202DE9F84FE0
:100C60001F4690468A460446DDF82890FFF70AFEA4
:100C7000054694F83D0020287FD1192301224049E0
:100C80002046009501F04EFE002876D194F83C00F5
:100C9000012872D0012084F83C0020680168C9074F
:100CA00003D1016841F0010101602068016821F46D
:100CB00000610160212084F83D00102084F83E008E
:100CC00000262664C4F824806785608D20852D4821
:100CD000E0622B464A465146204601F0AFFD90B9EE
:100CE000206841698069009036E02A4649462046DE
:100CF00001F0CAFE50B1206C042804D120680168BC
:100D000041F4007101600120BDE8F88F606A21683C
:100D100000780861606A401C6062618D491E6185CF
:100D2000218D491E89B2218522685369DB435B0707
:100D30000BD451B100781061606A401C6062608D14
:100D4000401E6085208D401E20852A46494620464B
:100D500001F0C2FD0028CED1208D0028C5D154F865
:100D60003D0B016841F400710160202004F81E0968
:100D7000E67766770020C7E7FFE70220C4E70000B8
:100D8000020010000000FFFF10B586B000210091A6
:100D900001910291039100680F4988421AD10F4CCA
:100DA000A06940F00800A061A069694600F0080051
:100DB0000490C02000901220019003200390084866
:100DC000FFF766FCE06940F40010E061E06900F4C0
:100DD0000010049006B010BD005400400010024006
:100DE000000C01400248816802781144816070471C
:100DF00028000020074810B5016841F0100101608B
:100E0000032000F075F80F2000F006F800F024F839
:100E1000002010BD0020024070B50D4D04464FF477
:100E20007A712878B1FBF0F00A490968B1FBF0F05B
:100E300001F018F848B9102C07D200222146501EA4
:100E400000F036F800206C6070BD012070BD00001D
:100E500028000020340000200C4808B5816941F0CA
:100E600001018161816901F001010091C16941F0D5
:100E70008051C161C06900F0805000900448416811
:100E800021F0E06141F00071416008BD00100240B6
:100E900000000140002809DB00F01F020121914001
:100EA0004009800000F1E020C0F800117047000008
:100EB000F0B40E4B1B680C46C3F30223C3F10705C5
:100EC000042D00D90425191D072901D2002300E0B3
:100ED000DB1E012606FA05F1491E214099409E407D
:100EE000761E16403143F0BC03F040BE0CED00E02E
:100EF000064900F0070208684FF6FF03184040EA71
:100F00000220034A10430860704700000CED00E027
:100F10000000FA0510B50C0607D501F0070101EB3A
:100F2000810100EBC100283005E001EB810100EBFD
:100F3000C10000F5B47099B232B10122027301818F
:100F4000190C4181002010BD00220273C180F9E715
:100F5000704701EB810200EBC202D0F8E802D26BCD
:100F600002F02FBD01EB810200EBC202D0F8E802D3
:100F7000D2F87C2102F088BD70B504460B0601F062
:100F8000070000EB800104EBC1014FF001024FF0BC
:100F9000000503D581F82920283103E081F8695143
:100FA00001F5B471087094F8A802012808D084F8FB
:100FB000A822206803F09CF984F8A852002070BD94
:100FC000022070BD70B5044601F00F0062689042C7
:100FD00001D9012070BD0B0601F0070000EB800174
:100FE00004EBC1014FF001024FF0000503D581F879
:100FF0002920283103E081F8695101F5B4718D7021
:10100000087094F8A802012808D084F8A822206863
:1010100003F00BFA84F8A852002070BD022070BDC6
:101020002DE9F05F04685FEA424C0B788D69B4F8F3
:1010300050C04FF000064BF68F7948F2800A48F610
:101040008F7B48F2C00E4FF480672AD54FF002081C
:1010500008EBC308C44407EB4C07E45BC4F3090482
:10106000A54203D32D1B8D6101D00BE08E61066874
:1010700036F8235005EA090585F4005545EA0A05C6
:1010800026F82350520609D50D78036833F8252039
:1010900002EA0B0242EA0E0223F8252084B30A89F1
:1010A00029E04FF0060808EBC308C44407EB4C07DF
:1010B000E45BC4F30904A54203D32D1B8D6101D069
:1010C0000BE08E61066836F8235005EA090585F4C1
:1010D000005545EA0A0526F82350520609D40B7834
:1010E000056835F8232002EA0B0242EA0E0225F8D1
:1010F00023202CB14A8949690068234603F004FD86
:101100002046BDE8F09F2DE9F05F054600680C46DB
:101110005FEA426C16468B692278B0F850C048F6F8
:101120008F774CF280094FF6FF7B4FF4004E4FF45F
:10113000806A4FF000017BD54FF0020808EBC2082F
:10114000E0440AEB480C30F80C00C0F3090083427D
:1011500011D91B1AA3610FD0730407D52E6836F876
:1011600022303B4043EA090326F8223094F8242039
:10117000012A50D04EE1A161607810B1012813D04E
:101180001AE02868B0F85030184400EB0210B0F8AC
:10119000042422F4F842A0F80424B0F8042442F411
:1011A0000042A0F8042407E02868B0F85030184442
:1011B00000EB0210A0F804146278286812B1012A2A
:1011C00011D018E0B0F850100844217800EB01105D
:1011D000B0F80C1421F4F841A0F80C14B0F80C1479
:1011E00041F4004105E0B0F850201044227800EBB3
:1011F0000210A0F80C1421782846FFF7AAFE70040C
:10120000B8D521782A6832F82100384040EA090030
:1012100022F82100FEE0626902446261E269024450
:10122000E2612369226A9A4203D31846111A04E044
:1012300038E084F824100AB110462162617811B1B7
:10124000012923D02BE02968B1F8502011442278DD
:1012500001EB021101F2044148B13E280FD84208C7
:10126000C30700D0521C0BEA82220A8017E00A88CA
:1012700022F4F8420A800A8842F40042F5E7420963
:10128000C30600D1521E4EEA8222EEE72968B1F869
:1012900050201144227801EB0211A1F8040483B21A
:1012A0002289B3E04FF0060808EBC208E0440AEBDD
:1012B000480C30F80C00C0F30900834211D31B1A0C
:1012C000A3610FD0730407D42E6836F822303B4058
:1012D00043EA090326F8223094F82420012A50D04A
:1012E00098E0A161607810B1012813D01AE0286855
:1012F000B0F85030184400EB0210B0F8042422F487
:10130000F842A0F80424B0F8042442F40042A0F803
:10131000042407E02868B0F85030184400EB0210AD
:10132000A0F804146278286812B1012A11D018E0DC
:10133000B0F850100844217800EB0110B0F80C14FC
:1013400021F4F841A0F80C14B0F80C1441F4004159
:1013500005E0B0F850201044227800EB0210A0F80D
:101360000C1421782846FFF7F4FD700452D422783B
:10137000296831F82200384040EA090021F82200AB
:1013800048E0626902446261E2690244E261236901
:10139000226A9A4203D31846111A216204E00AB164
:1013A0001046216284F824106278296812B1012A5B
:1013B00022D029E0B1F850201144227801EB02112B
:1013C00001F20C4148B13E280FD84208C30700D0B3
:1013D000521C0BEA82220A8016E00A8822F4F842A4
:1013E0000A800A8842F40042F5E74209C30600D1A8
:1013F000521E4EEA8222EEE7B1F8502011442278C4
:1014000001EB0211A1F80C04628983B261692868BA
:1014100003F098FB21782A6832F8210048F6BF7360
:10142000184080F0300048F28003184322F8210071
:101430000020BDE8F09F2DE9F04104460F0601F0C1
:10144000070000EB800104EBC1014FF001064FF0F3
:10145000000503D581F82960283103E081F869513E
:1014600001F5B47108700A61CB704A7802B1C88185
:10147000022B00D10D7194F8A802012809D084F83C
:10148000A862206802F006FE284684F8A852BDE84B
:10149000F0810220FBE770B50C4601F0070505EB73
:1014A000850100EBC101C1E95F230022C1F884215D
:1014B00081F8692181F8685101F5B471620700680B
:1014C00003F008F8002070BD70B504460D4601F029
:1014D00007006168884201D9012070BD29064FF0DC
:1014E00000064FF0010207D500EB800104EBC101BB
:1014F00081F82920283107E005EB850104EBC101C3
:1015000081F8696101F5B4718A70087094F8A802D5
:10151000012807D084F8A822206802F0C2FF6807DB
:1015200002D006E0022070BD04F52C71206802F0A4
:101530007AFF84F8A862002070BD70B50C4601F0F7
:10154000070505EB850100EBC101C1E90F2301226D
:1015500081F84C208B6400234B6481F8292001F82A
:10156000285F6207006802F0B5FF002070BD1FB55C
:101570000446006803F0C4FA000402D5204601F0D6
:1015800005FC206803F0BCFA40050CD5206830F853
:10159000441F21F480610180204600F01FF90021E2
:1015A000204600F036F9206803F0AAFA400405D579
:1015B000206830F8441F21F480410180206803F046
:1015C0009FFA800405D5206830F8441F21F40051AB
:1015D0000180206803F094FAC00414D5206830F824
:1015E000401F21F004010180206830F8401F21F0E5
:1015F00008010180204600F004F9206830F8441FFB
:1016000021F480510180206803F07AFA00053ED56C
:1016100022680020694632F8203021F81030401C42
:10162000C0B20828F7D332F8400F40F00100108014
:10163000206830F8402F22F0010202802068B0F8C4
:1016400044205205FBD530F8442F22F480620280FA
:101650000020236831F8102023F82020401CC0B25D
:101660000828F6D3206830F8401F41F008010180B7
:10167000206830F8441F21F400610180206830F8B0
:10168000401F41F004010180204600F0F7F8206877
:1016900003F036FA800508D5206830F8441F21F49D
:1016A00000710180204600F0B0F8206803F028FAAD
:1016B000C00505D5206830F8441F21F480710180F1
:1016C0001FBD00002DE9F04186B0040004D094F85D
:1016D000A902002520B108E0012006B0BDE8F08194
:1016E00084F8A852204600F05BF8032084F8A90291
:1016F000206802F091FE04F1100114228846684629
:10170000FEF782FD94E80F0002F0F0FD0226D0BB48
:101710000021206803F00EFA002001270FE000BF2F
:1017200000EB800104EBC10181F8297001F8280F5A
:10173000C881CD700D614D61401CC0B28D61616882
:101740008142EDD8002011E000EB800104EBC101E3
:1017500081F8695181F8680181F86B51C1F87851BD
:10176000C1F87C51401CC0B2C1F88051616881420F
:10177000EAD8142241466846FEF746FD94E80F0079
:1017800002F041FE10B184F8A962A5E784F8245064
:1017900084F8A972206802F034FE00209DE7000062
:1017A00008B500680B49884212D10B48C16941F461
:1017B0000001C161C069002200F4000000901146E0
:1017C0001420FFF775FBBDE808401420FFF762BB4B
:1017D00008BD0000005C00400010024070B50446E7
:1017E00080680125022801D0FEF72EFE2946D4F894
:1017F000E80202F026FAD4F8E802BDE8704002F0F0
:10180000E2B9D0F8E80202F006BAD0F8E80202F035
:101810000CBA10B5044690F8A80201280BD001209C
:1018200084F8A80284F82410206803F085F90020C9
:1018300084F8A80210BD022010BDD0F8E82200F5FF
:101840002C71104602F009BA10B5044690F8A802AF
:10185000012810D0012084F8A802206803F040F984
:1018600001212046FFF774FB206802F0C8FD00202C
:1018700084F8A80210BD022010BD000010B5044677
:10188000D0F8E80202F028FAA069002804D0034842
:10189000016841F00601016010BD000010ED00E09C
:1018A0002DE9F84305460078354CC00754D0E0696F
:1018B0000026C00008D4E06940F08050E061E06993
:1018C000012600F0805000902E480168C90512D40E
:1018D0000168804641F480710160FEF7D3FF07463E
:1018E00005E000BFFEF7CEFFC01B642823D8D8F860
:1018F0000000C005F6D5206A10F4407021D0A988F8
:1019000001F4407181421CD0206A1F49012220F459
:1019100040700A6000220A602062C00711D0FEF702
:10192000B1FF074641F2883808E000BFFEF7AAFF82
:10193000C11B414502D90320BDE8F883206A800716
:10194000F4D5206A696820F44070084320621EB113
:10195000E06920F08050E0612878800705D5606854
:10196000A96820F44040084360602878C00605D587
:101970006068E96820F48000084360600020DBE7CD
:101980000010024000700040400442422DE9F04740
:101990000F46050061D0434E306800F00700B842A2
:1019A00009D2306820F0070038433060306800F01A
:1019B0000700B84251D128683B4C810712D5400737
:1019C00003D5606840F4E06060602878000703D5C4
:1019D000606840F4605060606068A96820F0F000C2
:1019E000084360602878C00728D06868012810D0B4
:1019F0002168022810D0890700292EDA616821F0B9
:101A0000030101436160FEF73DFF804641F28839E2
:101A10000DE021688903EFE78901EDE7FEF732FF6A
:101A2000A0EB0801494502D90320BDE8F0876068B2
:101A3000696800F00C00B0EB810FEFD1306800F066
:101A40000700B8420BD9306820F0070038433060F7
:101A5000306800F00700B84201D00120E5E728789F
:101A6000400705D56068E96820F4E06008436060DD
:101A70002878000706D56068296920F4605040EA9C
:101A8000C100606000F028F86168084AC1F30311E2
:101A9000515CC8400649086006480068FFF7BCF979
:101AA0000020C2E700200240001002404050000821
:101AB000340000202C0000200448054900684968D3
:101AC000044AC1F30221515CC84070473400002031
:101AD000001002405050000812A185B00FC98DE8D7
:101AE0000F0014A0144A006804905168134801F0D4
:101AF0000C03042B10D0082B0ED1C1F38343C90370
:101B00001DF803000AD5516804AAC1F34041515C95
:101B10000A4A5043B0FBF1F005B07047084948430A
:101B2000FAE7000002030405060708090A0B0C0D7A
:101B30000E0F1010010200000010024000127A0087
:101B400000093D002DE9F84F040070D02078C04D09
:101B5000C00749D06868C0F38100012807D06868D1
:101B6000C0F38100022809D16868C00306D528683F
:101B7000800339D560680028E7D035E06068B0F5AB
:101B8000803F0BD010B1B0F5A02F11D0286820F401
:101B900080302860286820F4802002E0286840F423
:101BA00080302860606890B1FEF76CFE06460AE05F
:101BB000286840F480202860F0E700BFFEF762FE4E
:101BC000801B642873D828688003F7D50CE0FEF7E3
:101BD00059FE064605E000BFFEF754FE801B642850
:101BE000F0D828688003F7D420789A4E80074FF009
:101BF00001094FF0000839D5686810F00C0F07D0C4
:101C00006868C0F38100022809D16868C00306D45F
:101C10002868800714D52069012808D110E02069C0
:101C2000B0B1C6F80090FEF72DFE074605E00AE1C8
:101C3000FEF728FEC01B0228C4D828688007F7D505
:101C40002868616920F0F80040EAC10028600DE0D2
:101C5000C6F80080FEF716FE074604E0FEF712FE07
:101C6000C01B022823D828688007F7D420780007F3
:101C70002CD57948A169D9B1C0F80090FEF702FED1
:101C8000074604E0FEF7FEFDC01B02280FD8686A75
:101C90008007F7D571484FF4FA510068B0FBF1F0B6
:101CA000009000BF0098411E0091FAD20EE080E043
:101CB000C0F80080FEF7E6FD074604E0FEF7E2FD0F
:101CC000C01B022875D8686A8007F7D420784007BF
:101CD00060D5E8690027C00008D4E86940F080506A
:101CE000E861E869012700F0805000905C480168D5
:101CF000C90513D40168834641F480710160FEF781
:101D0000C1FD824606E000BFFEF7BCFDA0EB0A0065
:101D100064284ED8DBF80000C005F5D5E06801283E
:101D20000AD008B1052813D0286A20F001002862E3
:101D3000286A20F0040002E0286A40F001002862CE
:101D4000E06841F2883B98B1FEF79CFD82460BE0CB
:101D5000286A40F004002862EEE700BFFEF792FD1B
:101D6000A0EB0A0159455AD8286A8007F6D50CE03D
:101D7000FEF788FD824605E0FEF784FDA0EB0A0130
:101D800059454CD8286A8007F6D41FB1E86920F07D
:101D90008050E861E06988B36968C1F38101022974
:101DA00044D00228C6F8608004D0FEF76BFD0446DC
:101DB00038E034E0FEF766FD074604E0FEF762FD1A
:101DC000C01B02282BD828688001F7D4206AB0F500
:101DD000803F05D16868A16820F40030084368603E
:101DE000D4E908010843696821F474110843686064
:101DF000C6F86090FEF746FD044606E025E000BF09
:101E0000FEF740FD001B022809D828688001F7D59D
:101E10001BE000BFFEF736FD001B022802D903209D
:101E2000BDE8F88F28688001F4D40EE00128F7D0CF
:101E30006868226A00F48031914204D1616A00F43A
:101E40007010884201D00120EAE70020E8E7000096
:101E50000010024000004242800442423400002050
:101E60000070004010B5401EB0F1807F01D301200A
:101E700010BD4FF0E02460610F21601702F076FE84
:101E80000020A06107202061002010BD704770472E
:101E900070B590F83C20012A26D0012480F83C40FF
:101EA000022280F83D2003685A689D6822F070067F
:101EB0000A6832435A600D4B02689A4208D0B2F168
:101EC000804F05D00A4B9A4202D00A4B9A4204D165
:101ED000496825F080031943916080F83D40002156
:101EE00080F83C10084670BD022070BD002C0140F7
:101EF000000400400008004010B5040003D094F82E
:101F00003D0010B107E0012010BD002084F83C0026
:101F1000204600F01FF8022084F83D00211D2068B3
:101F200001F00CF9012084F8460084F83E0084F8A2
:101F30003F0084F8400084F8410084F8420084F8AF
:101F4000430084F8440084F8450084F83D000020F4
:101F500010BD000008B50068B0F1804F12D10A48EA
:101F6000C16941F00101C161C069002200F00100B6
:101F7000009011461C20FEF79BFFBDE808401C2086
:101F8000FEF788BF08BD00000010024070B504468F
:101F900090F83C00012817D0012584F83C5002201D
:101FA00084F83D002068826822F0770222F47F42A4
:101FB00082600868502830D00DDC20284DD005DC28
:101FC00098B310283BD148E0022070BD302844D09F
:101FD000402834D139E0602828D0702806D0B0F5E8
:101FE000805F2CD0B0F5005F29D10AE0CB68D1E941
:101FF0000121206801F05AF92068816841F07701D9
:1020000009E0CB68D1E90121206801F04FF920688F
:10201000816841F48041816011E0CA6849682068A4
:1020200001F0F8F95021206807E016E0CA68496815
:10203000206801F000FA6021206801F041F984F87D
:102040003D50002084F83C0070BDCA684968206893
:1020500001F0E0F940212068EFE7226801461046D0
:10206000EBE77047704770B50446006801694FF0B0
:102070000005C943890715D4C168C943890711D42C
:10208000E91E0161012020772068806980072046D1
:1020900002D0FFF7E7FF04E000F0ECF8204600F084
:1020A000C5F9257720680169C943490717D4C16874
:1020B000C943490713D46FF004010161022020775E
:1020C0002068806910F4407F204602D0FFF7CAFFE5
:1020D00004E000F0CFF8204600F0A8F9257720684A
:1020E0000169C943090716D4C168C943090712D455
:1020F0006FF008010161042020772068C069800723
:10210000204602D0FFF7AEFF04E000F0B3F820460F
:1021100000F08CF9257720680169C943C90617D4F6
:10212000C168C943C90613D46FF0100101610820CA
:1021300020772068C06910F4407F204602D0FFF766
:1021400091FF04E000F096F8204600F06FF9257743
:1021500020680169C943C90708D1C168C943C907D3
:1021600004D1891E0161204600F0D8FA2068016977
:10217000C943090609D4C168C943090605D46FF0EB
:10218000800101612046FFF781FE20680169C94393
:10219000490609D4C168C943490605D46FF0400116
:1021A0000161204600F0BBFA20680169C943890635
:1021B0000BD4C168C943890607D46FF020010161BF
:1021C0002046BDE87040FFF762BE70BD10B586B016
:1021D000002100910191029103910368204A02219C
:1021E0002048B3F1804F0CD01F4CA34224D19369F7
:1021F00043F008039361926902F0080204920122FD
:1022000026E0936943F0080393619269039102F019
:10221000080204924FF40062CDE900216946FEF7FE
:1022200037FA1248416821F4407141F0E06141F40D
:102230000071416006B010BD0D4CA342FAD1936904
:1022400043F008039361926902F008020492A21518
:10225000CDE9002103916946FEF71AFAEAE700008A
:1022600000100240000C014000040040000001404A
:1022700000080040704770B5044690F83C000D46D9
:1022800001280AD0012084F83C0042B1042A18D069
:10229000082A2AD00C2A4DD139E0022070BD2068CE
:1022A00001F016F82068816941F008018161206819
:1022B000816921F004018161206881692A691143E3
:1022C00011E0206801F02CF82068816941F4006178
:1022D00081612068816921F4806181612068816960
:1022E0002A6941EA0221816124E0206801F044F872
:1022F0002068C16941F00801C1612068C16921F00D
:102300000401C1612068C1692A69114311E0206894
:1023100001F05EF82068C16941F40061C161206884
:10232000C16921F48061C1612068C1692A6941EAFB
:102330000221C161002084F83C0070BD10B504008A
:1023400003D094F83D0010B107E0012010BD00203B
:1023500084F83C00204600F01FF8022084F83D007D
:10236000211D206800F0EAFE012084F8460084F870
:102370003E0084F83F0084F8400084F8410084F86F
:10238000420084F8430084F8440084F8450084F84F
:102390003D00002010BD0000F8B50546076810207C
:1023A000DFF870C000211C4C8022030186016745C4
:1023B00013D1E76947F00207E761E469174F04F0BA
:1023C00002040094164C80C44FC4154844F81819F0
:1023D000E16117E0EC626562F8BDDFF848C067456F
:1023E000FAD1E76947F00407E761E4690B4F04F0AD
:1023F000040400940C4C3C3780C44FC40A4844F891
:102400001819E161FEF7CCF80028E3D0FEF71CF8BC
:10241000E0E7000000040040001002401C00024001
:10242000A407002000080040E8070020704770471C
:102430002DE9F04117460D0004460CD0042D11D0B3
:10244000082D16D094F84100022819D094F84100C4
:10245000012818D09AE094F83E00022810D094F891
:102460003E00F5E794F83F00022809D094F83F00B9
:10247000EEE794F84000022802D094F84000E7E725
:102480000220BDE8F0810FB9002B7FD14349444EB3
:10249000444A022045B1042D16D0082D24D084F8DA
:1024A00041000C2D3AD164E084F83E00606A8162FC
:1024B000606A3946C662606A02632268606A3432C2
:1024C000FEF79CF8F0BB1FE084F83F00A06A816231
:1024D000A06A3946C662A06A02632268A06A3832DE
:1024E000FEF78CF870BB14E084F84000E06A81626B
:1024F000E06A3946C662E06A02632268E06A3C32FA
:10250000FEF77CF8F0B92FE02068C16841F4007153
:1025100003E02068C16841F48061C160012229465E
:10252000206800F041FE20492068884203D1426CB7
:1025300042F400424264206888420AD0B0F1804FE1
:1025400007D000E022E01949884202D018498842A9
:1025500004D1816801F00701062903D0016841F028
:102560000101016000208CE72068C16841F400612E
:10257000D3E7206B8162206B3946C662206B026311
:102580002268206B4032FEF739F808B1012078E765
:102590002068C16841F48051BFE70000C3310008E2
:1025A0002132000859320008002C0140000400408C
:1025B0000008004010B50446022249B1042912D097
:1025C00008291CD094F84100012823D0012010BD17
:1025D00094F83E000128F9D184F83E202068C268B2
:1025E00042F0020209E094F83F000128EED184F89D
:1025F0003F202068C26842F00402C2600EE094F8F6
:1026000040000128E2D184F840202068C26842F0EE
:102610000802F2E784F841200C2922D00122206828
:1026200000F0C2FD11492068884203D1426C42F497
:10263000004242642068884208D0B0F1804F05D043
:102640000B49884202D00B49884204D1816801F0CD
:102650000701062903D0016841F001010160002053
:1026600010BD2068C26842F01002C6E7002C01408D
:10267000000400400008004030B5044600680D002A
:1026800006D0042D08D0082D35D00C2D08D136E009
:10269000C16821F0020102E0C16821F00401C160BB
:1026A00000222946206800F07FFD1B4B41F21111EA
:1026B00020688A10984209D1036A0B4206D1036A46
:1026C000134203D1436C23F4004343642068036A3C
:1026D0000B4206D1016A114203D1016821F00101C8
:1026E000016001207DB1042D10D0082D11D084F897
:1026F0004100002030BDC16821F00801CFE7C1686A
:1027000021F01001CBE784F83E00F2E784F83F00A7
:10271000EFE784F84000ECE7002C01407047704779
:10272000FEE701684A69D24352050FD46FF4806214
:102730004A61002140F8301F2022427381730269F0
:1027400042F00402026101730120704700207047CB
:102750002DE9F84F0446C06A1E4693460D4621688F
:102760000A6842F480620A60082807D0012805D070
:1027700010F5803F02D0206B112804D12068016839
:1027800041F4807101604FF001195B460022494617
:102790002046009600F0C6F84FF4007840B120685B
:1027A0000068C00501D5C4F840800320BDE8F88F5B
:1027B0002069DFF884A0B0F5804F0FD00620216893
:1027C00000EAD51747F0F000086133465A460AF18F
:1027D0000601204600F0DAF858BB03E0E8B240F00A
:1027E00001001CE02168E8B2086133465A465146B0
:1027F000204600F0CBF8E0B920684169816900917A
:10280000016841F4807101605B4600224946204620
:10281000009600F087F80028C1D147F0F100216848
:10282000086133465A465146204600F0AFF800286A
:10283000BCD00120BAE7000002000100F8B5044650
:10284000C06A1E460D461746082807D0012805D045
:1028500010F5803F02D0206B122804D12068016857
:1028600041F480710160134600224FF001112046AF
:10287000009600F057F840B120680068C00502D506
:102880004FF4007020640320F8BD2069B0F5804F3C
:102890000ED00620216800EAD51040F0F000086153
:1028A00033463A460B49204600F070F878B902E00A
:1028B00005F0FE0000E0E8B22168086105493346F2
:1028C0003A46891F204600F061F80028DCD001203C
:1028D000F8BD00000800010070B516460D4604461C
:1028E0000DE02046FFF71DFF08B1012070BD681CF8
:1028F00005D0FDF7C7FF801BA84207D835B1206877
:102900004069C0434007ECD4002070BD002044F86B
:10291000300F20216173A073216941F020012161F2
:102920002073E2E72DE9F0471E4690460D46044627
:10293000C1F30747DDF8209008E0701C06D0FDF7D2
:10294000A1FFA0EB0900B0420FD876B12068012F9B
:1029500018D0806925EA00000004000C14D0002182
:102960004145EAD00020BDE8F087002044F8300F50
:1029700020216173A073216941F02001216120733E
:102980000120F0E74069E5E70121E9E72DE9F0479B
:102990009A4691460E46044600254FF02008C1F3A2
:1029A000074725E020684069C043400514D42068EB
:1029B000016841F40071016021686FF48060486132
:1029C000256384F83D8084F83E50206C40F004007C
:1029D000206484F83C501FE0B9F1FF3F08D0FDF7B8
:1029E00051FFA0EB0A0149450CD8B9F1000F09D0FD
:1029F0002068012F13D0806926EA00000004000C33
:102A00000BD0CFE744F8305F84F80D80A5732069C0
:102A100040F02000206125730120BDE8F087406967
:102A2000EAE72DE9F041002590460E4604462027AE
:102A300017E04069C043C0060CD454F8301B6FF057
:102A40001000486144F810596777A577206A206222
:102A5000257717E0FDF716FFA0EB0800B04208D875
:102A60003EB120684169C9434906E2D40020BDE86F
:102A7000F08144F8305F6773A573206940F020004F
:102A8000206125730120F2E770B516460D46044615
:102A90000DE02046FFF745FE08B1012070BD681C1F
:102AA00005D0FDF7EFFE801BA84207D835B120689E
:102AB0004069C0430006ECD4002070BD002044F8FB
:102AC000300F20216173A073216941F02001216141
:102AD0002073E2E7F0B500230A24302537261F468D
:102AE00011E000BFB4EB107F02D905EB107C01E0D0
:102AF00006EB107C01F813C001EB430C00015B1CDA
:102B00008CF80170DBB29342ECD3F0BD2DE9F041BB
:102B100086B00024284800940194029403948169AB
:102B200041F010018161816901F010010491816916
:102B300041F020018161816901F0200104918169E6
:102B400041F004018161816901F00401049181690E
:102B500041F0080181618069184F00F008004FF4CE
:102B600000550490002229463846FDF786FEDFF81E
:102B7000508000220F214046FDF77FFE0126CDE95F
:102B80000056022569463846CDE90245FDF780FD2D
:102B90000F20CDE9000669464046CDE90245FDF724
:102BA00077FDF0208DE8310069464046FDF770FD65
:102BB00006B0BDE8F08100000010024000100140A6
:102BC0000008014010B58EB00024079408940994C1
:102BD0000A940B941C2168460C94FDF747FB1E4891
:102BE0004FF08041016040F26711C0E90114C82133
:102BF000C0E903148461FFF77FF908B172B6FEE7FC
:102C00004FF48050079007A91348FFF7BFF908B1A8
:102C100072B6FEE71048FFF791FB08B172B6FEE707
:102C20000B940BA90C480C94FFF732F908B172B65B
:102C3000FEE7602000906420CDE901040C22694683
:102C400005480494FFF717FB08B172B6FEE7024887
:102C5000FFF7BCFA0EB010BDB806002010B58AB060
:102C6000002407941C2168460894FDF7FFFA1548D4
:102C70001349C0E900146321C0E902410461846181
:102C8000FFF75CFB08B172B6FEE7079407A90D4891
:102C90000894FFF7FDF808B172B6FEE76020CDE9B1
:102CA000000402940822694606480494FFF7E3FAF8
:102CB00008B172B6FEE70348FFF788FA0AB010BD04
:102CC000000400400007002010B58AB000240794DB
:102CD0001C2168460894FDF7C9FA15481349C0E954
:102CE00000146321C0E9024104618461FFF726FBFF
:102CF00008B172B6FEE7079407A90D480894FFF7DC
:102D0000C7F808B172B6FEE76020CDE9000402946E
:102D10000822694606480494FFF7ADFA08B172B676
:102D2000FEE70348FFF752FA0AB010BD0008004062
:102D30004807002010B500220F49104800F01AFE85
:102D400008B1FDF781FB0E490C4800F0EBFF08B11C
:102D5000FDF77AFB0B49094800F008FC08B1FDF7C4
:102D600073FB064801F034F8002803D0BDE810409A
:102D7000FDF76ABB10BD0000380000202C080020C1
:102D80000C010020F4000020FEE7FEE72DE9F84FDB
:102D9000044640F68F7B48F60F7A4FF002094FF455
:102DA000806874E1B0F8441011F00F063AD030F8A2
:102DB000267039047DD530F8261001EA0B0141F068
:102DC000800120F8261006EB860004EBC00595F87C
:102DD000740105F5B47500286CD0E87802286AD033
:102DE0002878226832F8201048F68F73194048F28C
:102DF000C003194322F820102878D4F800C03CF80A
:102E00002010BCF8502049047ED509EBC0001118F1
:102E100008EB41003CF800008005800D009074D064
:102E20002A89D8E0C9062DD4018801EA0A0141F4B3
:102E300000410180216804F12805B1F850202B7869
:102E400009EBC300024408EB4200085AC0F3090032
:102E50006064E16B0844E06300212046FEF779F8E6
:102E600094F8240000289CD0A869002899D194F8EF
:102E70002400216840F08000A1F84C00002084F874
:102E8000240004E1018804F5B4750A0521D5B0F8E1
:102E900050202B78062101EBC3010A4408EB4201C4
:102EA000405A04F52C71C0F30903EB61EA882068ED
:102EB00002E0ACE068E07AE001F026FE21680888D4
:102EC00000EA0B0040F0800008802046FEF7B5FCC9
:102ED000DDE00904D5D5018801EA0B0141F080014C
:102EE00001802068B0F850202B78062101EBC30147
:102EF0000A4408EB4201405A83059B0DEB6110D058
:102F0000696971B1EA8801E058E056E0206801F093
:102F1000FBFDE96968690844686100212046FEF705
:102F200021F82068018809052DD4B0F85010084414
:102F3000296900F20C4051B13E2910D84A08C9074E
:102F400000D0521C4FF6FF7101EA82210FE0018888
:102F500021F4F8410180018841F4004107E04A0969
:102F6000C90600D1521E4FF4004141EA822101807E
:102F7000206801884BF68F72114081F4405148F26D
:102F800080021143018082E0D4F800C0BCF85010E8
:102F90002A78062000EBC200014408EB41003CF80F
:102FA00000008005800D00901AD0EA8813E03A46B0
:102FB00029462046FEF734F8009011E0062101EB87
:102FC000C000111808EB41003CF800008005800D9E
:102FD000009005D06A8903466046696901F094FD56
:102FE000E96900980844E8616969009808446861E3
:102FF000A86918B129690098814204D92978204626
:10300000FDF7B0FF03E02946206801F063FA3806B7
:103010003DD506EB860004EBC001206830F8262081
:1030200002EA0A0242F4004220F8262091F82B001E
:103030002831032804D018B1022824D1F80522D45D
:103040002368B3F850200D7809EBC500024408EB63
:103050004200185A8A69C0F3090082420CD9121A38
:103060008A610BD04A6902444A61CA691044C86146
:10307000206801F02FFA0AE000208861E9B22046BA
:10308000FDF767FF03E03A462046FEF73CF820686C
:10309000B0F8441009043FF585AE0020BDE8F88F74
:1030A00070477047FDF79EBE30B593B02821684643
:1030B000FDF7DCF814210AA8FDF7D8F80024012058
:1030C0000F9410941194010412948DE8130004904D
:1030D0004FF4E010CDE90810022507956846FEF789
:1030E00031FD08B172B6FEE70F20CDE90A054FF4B5
:1030F0008060CDE90C4002210AA80E94FEF746FC40
:1031000008B172B6FEE710200F9012940FA8FEF7D8
:10311000C7FB002801D072B6FEE713B030BD704780
:1031200010B50448FEF79FFF03480168491C016081
:1031300010BD0000B806002008000020F0B50268AD
:10314000164B174C174D4FF08047984205D0B842A8
:1031500003D0A04201D0A84203D122F070064A68F1
:103160003243984205D0B84203D0A04201D0A842D1
:1031700003D122F44074CA6822434C6922F08002D1
:10318000224302608A68C2620A688262984201D160
:103190000969016301214161F0BD0000002C01407B
:1031A000000400400008004010B501F01F03012199
:1031B000046A99408C430462016A9A401143016297
:1031C00010BD10B5446A0121626A824205D121779F
:1031D0008069F8B984F83E101CE0A26A824206D1E8
:1031E000022222778069A8B984F83F1012E0E26ACF
:1031F000824206D104222277806958B984F84010AF
:1032000008E0226B824205D108222277806908B942
:1032100084F841102046FFF709F90020207710BDFF
:1032200010B5446A616A814201D101200DE0A16AB2
:10323000814201D1022008E0E16A814201D10420EB
:1032400003E0216B814201D1082020772046FFF75F
:10325000EEF80020207710BD10B5446A0121626AA3
:10326000824203D1217784F83E1019E0A26A82429B
:1032700004D10220207784F83F1011E0E26A8242F4
:1032800004D10420207784F8401009E0226B8242A8
:1032900004D10820207784F8411001E084F83D1023
:1032A0002046FEF7DEFE0020207710BD10B58468B2
:1032B00042EA032224F47F440A432243826010BD81
:1032C000826822F070020A4342F007018160704771
:1032D00030B5026A22F001020262026A4368846920
:1032E00024F073050C682C4322F002058A682A43F7
:1032F0000A4DA8420BD122F00805CA6823F4407396
:103300002A434D6922F004021D438B692B4343601D
:10331000846149684163026230BD0000002C0140B5
:1033200030B5026A22F010020262026A43688469C0
:103330000D6824F4E64444EA05248D6822F0200256
:1033400042EA05120B4DA8420ED1CD6822F0800250
:1033500042EA05124D6923F4406343EA85038D690F
:1033600022F0400243EA8503436084614968816337
:10337000026230BD002C014030B5026A22F4807236
:103380000262036A4268C46923F4007324F073057F
:103390000C682C438D6843EA05230C4DA8420ED1DE
:1033A000CD6823F4006343EA05234D6922F44052BB
:1033B00042EA05128D6923F4806342EA05124260F5
:1033C000C4614968C163036230BD0000002C014044
:1033D00030B5026A22F480520262046A4268C3690C
:1033E0000D6823F4E64343EA05238D6824F4005472
:1033F00044EA0534064DA84204D14D6922F48042C6
:1034000042EA85124260C36149680164046230BDCA
:10341000002C014010B5036A046A24F00104046220
:10342000846924F0F00444EA021423F00A020A43F7
:103430008461026210BD10B5036A23F010030362B9
:103440008369046A23F4704343EA023224F0A00340
:1034500043EA01118261016210BDD0F8B802002177
:1034600080F824100846704770B50546D0F8B84279
:10347000D5F8BC226178D268207890471423224680
:103480000121284600F096FB002070BD70B504466F
:10349000812100F08DFA002501212046E56200F02F
:1034A00087FAC4F86C51D4F8B80248B1D4F8BC0219
:1034B00004F52E7480688047206800F0E6FD2560E2
:1034C000002070BD10B5D0F8B842216A012908D19A
:1034D000D0F8BC0223786178C26818469047002073
:1034E0002062002010BD00000A21018000487047C2
:1034F000D4010020292101800048704744010020A8
:103500002921018000487047700100202921018095
:10351000004870479C01002070B504460026022335
:103520000322812100F03AFB0125022303222946D0
:103530002046E56200F032FB2820C4F86C5100F010
:10354000A5FDC4F8B80278B10546002085F824002E
:10355000D4F8BC024068804714232A460121204643
:1035600000F028FB304670BD0126FBE70246022032
:10357000002902D00020C2F8BC12704710B51346D3
:1035800090F89C42D0F8B822032C0BD192F824403A
:103590000CB1012010BD012482F824400A4681218B
:1035A00000F0A3FB002010BDF8B50022D0F8B8321F
:1035B000ADF800200E781546144616F0600622D0AD
:1035C000202E56D14A78921E0A2A52D2DFE802F003
:1035D00010085151515151140C05887858614BE035
:1035E000012203F1140135E04888000A986143E0A4
:1035F000012203F118012DE001221A62CA8819463E
:1036000000F064F838E04E7836B1062E0BD00A2E62
:1036100023D00B2E2DD128E090F89C22032A28D10C
:103620000222694616E04B882226B6EB132F07D1FB
:10363000CA886C2A00D96C22D0F8BC120D6808E048
:103640002126B6EB132F04D1CA880E4D092A00D9C2
:103650000922294600F054F80EE090F89C22032A33
:1036600007D1012203F11C01F4E790F89C22032A00
:1036700004D000F020F802242046F8BD8878D861F4
:10368000FAE70000C801002010B5D0F8B422526853
:103690009047002010BD134610B50A46002100F0E7
:1036A00089FA002010BD134610B50A46002100F02B
:1036B0001CFB002010BD10B50446802100F0FAFA72
:1036C0002046BDE81040002100F0F4BA10B50323F5
:1036D000C0F85C21C0F89432C0F8602113460A4655
:1036E000002100F067FA002010BD10B5052100236D
:1036F000C0F894121A46194600F05CFA002010BD7A
:1037000010B50223C261C0F89432026213460A4621
:10371000002100F0EAFA002010BD10B504210023BA
:10372000C0F894121A46194600F0DFFA002010BDC6
:1037300010B50A46024903A000F0ECF8004810BD9D
:10374000F00A0020437573746F6D2048494420438C
:103750006F6E66696700000012200880004870479D
:103760005800002010B50A46024903A000F0D2F824
:10377000004810BDF00A0020437573746F6D204837
:10378000494420496E7465726661636500000000FB
:1037900004200880004870475400002010B50A46F5
:1037A000024903A000F0B6F8004810BDF00A00205E
:1037B0004C4253656E735F4855425F5631000000BE
:1037C00010B50A46024903A000F0A4F8004810BD55
:1037D000F00A002053544D333220437573746F6DDB
:1037E0002048756D616E20696E74657266616365EF
:1037F0000000000010B51A2008800A480168001D6A
:103800000468001D0068081809D008220649FFF75F
:1038100061F90549042210312046FFF75BF902489F
:10382000801E10BDE8F7FF1F6E000020F8B50446AB
:103830000020ADF8000048880D46010A082948D24A
:10384000DFE801F04704091747473C45D4F8B012B8
:10385000207C0A6819E0207C02260028D4F8B402F3
:1038600005D0C16A68468847014646703EE0816AD5
:10387000F8E7C0B206282CD2DFE800F0030A1014E3
:10388000181CD4F8B002426805E0694690471CE075
:10389000D4F8B0028268E2B1207CF6E7D4F8B00236
:1038A000C268F8E7D4F8B0020269F4E7D4F8B002CD
:1038B0004269F0E7D4F8B0028269ECE7207C40B9B5
:1038C000D4F8B402416B6846884701460EE0207C7C
:1038D00020B129462046FFF7EEFEF8BDD4F8B40229
:1038E000016B68468847014607204870BDF8000014
:1038F00048B1EA8852B1824200D90246ADF80020B0
:103900002046FFF7FDFEE8880028E6D12046FFF7B5
:1039100004FFF8BD70B5002300281ED00446002522
:1039200002E06D1CEDB2641C2678002EF9D1022451
:1039300004EB450414801278CA545B1C0322CA5459
:1039400000245B1C06E0CA545B1CDAB28C54521C87
:10395000D3B2401C0278002AF5D170BD01004FF0AF
:10396000000004D0012901D0022901D002207047B3
:103970000120704710B580B1D0F8B43213B10023E4
:10398000C0F8B43209B1C0F8B012012180F89C121D
:10399000027000F0BBF8002010BD022010BD10B571
:1039A000D0F8C002FDF70EFBBDE81040FFF7D6BF10
:1039B00010B5D0F8C002FDF7DFFABDE81040FFF700
:1039C000CDBF2DE9F0411746044651B1D4F8B402F9
:1039D00042691AB194F89C02032851D00220BDE834
:1039E000F081D4F89432002504F11400022B03D0A6
:1039F000042B3AD0C3B33CE0D0E903639E4207D91D
:103A0000F11AC1608AB239462046FFF74CFE12E037
:103A10008068B0FBF3F103FB110199B9984211D30F
:103A2000D4F8981288420DD2002211462046FFF7A2
:103A30003AFEC4F8985200231A461946204600F070
:103A4000B9F816E0D4F8B402C16829B194F89C0220
:103A5000032801D1204688478021204600F02AF91A
:103A60002046FFF742FE04E0FFE78021204600F0F9
:103A700021F994F8A002012804D184F8A05201E0B1
:103A8000204690470020AAE770B51546044649B184
:103A9000D4F8B40282691AB194F89C02032830D099
:103AA000022070BDD4F8941204F5AA70032902D044
:103AB00005291ED027E0D0E903218A420BD9531AE9
:103AC000C3600846834200D303469AB22946204683
:103AD000FFF7E1FD17E0D4F8B402016929B194F8C9
:103AE0009C02032801D1204688472046FFF715FE97
:103AF00009E000200146C4F89402204600F0DAF8FC
:103B000001E020469047002070BD000010B5194923
:103B10000446C1F8E802C0F8C0121748086008203F
:103B200048600220886000208861C86108620846F9
:103B3000FDF7C8FD08B1FCF787FC0022D4F8C002ED
:103B40001823114604F53074FDF7E4F958230022D8
:103B500080212068FDF7DEF998230022812120686A
:103B6000FDF7D8F9D823002201212068FDF7D2F90A
:103B7000002010BD1C0D0020005C00400A0601F072
:103B80007F01D0F8C00201EB810100EBC10002D53A
:103B900090F82A00704790F86A01704710B51C46EB
:103BA0001346D0F8C0022246FDF745FCBDE81040A0
:103BB000FFF7D4BE10B5D0F8C002FDF76CFCBDE82D
:103BC0001040FFF7CBBE70B50022044640231146DB
:103BD000FFF7E4FF40260125C4F864613346002264
:103BE00080212046C4F85851FFF7D8FF6662A561CE
:103BF00084F89C520020C4F894026060C4F8A402C7
:103C0000D4F8B80228B1D4F8B402002142682046A2
:103C10009047002070BD90F89C12042903D190F8C1
:103C20009D1280F89C120020704710B590F89C12ED
:103C3000032904D1D0F8B412C96901B18847002022
:103C400010BD01740020704710B5D0F8C002FDF718
:103C5000E0FDBDE81040FFF781BE70B5044600F5F9
:103C60002A70054600F04AF80120C4F89402B4F81E
:103C7000AE02C4F8980294F8A80210F01F010AD00E
:103C800001290DD0022910D000F08001204600F05B
:103C900011F8002070BD2946204600F09EF8F8E794
:103CA0002946204600F0CAF9F3E72946204600F0ED
:103CB0001DF9EEE710B5D0F8C002FDF705FCBDE830
:103CC0001040FFF74BBE10B5D0F8C002FDF7BCFDA9
:103CD000BDE81040FFF742BE90F89C1280F89D129C
:103CE000042180F89C120020704710B5D0F8C00263
:103CF000FDF723FCBDE81040FFF730BE0A780270E4
:103D00004A7842708A78CB7802EB032242800A79A3
:103D10004B7902EB032282808A79C97902EB012177
:103D2000C18070470246002011B1C2F8B41270473A
:103D30000220704710B5D0F8B42202241AB11268DC
:103D4000904700B90024204610BD000070B50E4613
:103D50001E4D897804462970012931D894F89C02B7
:103D600002280BD003280FD031462046FFF7A3FCD2
:103D700029782046BDE87040FFF786BCD9B1032002
:103D8000616084F89C0209E071B16068884212D0D9
:103D9000C1B22046FFF778FC297861602046FFF722
:103DA000C9FF02280CD006E0022084F89C022046BD
:103DB0006160FFF769FC2046BDE87040FFF7ADBCCD
:103DC00031462046BDE87040FFF775BC0801002071
:103DD00010B5FFF778FF002010BD2DE9F0410A78FB
:103DE000002612F0600208D0202A01D0402A70D1AB
:103DF000D0F8B422926890476DE04B7800220125FC
:103E00000A2B66D2DFE803F0405D6557650805655B
:103E10002C29FFF70BFD5EE004468888D8B9C888D6
:103E2000C8B94888802816D200F07F0794F89C0211
:103E3000032810D084F89E7239462046FFF704FF0D
:103E40002046FFF76AFC1FB1022084F89C0242E082
:103E500084F89C523FE020463BE0FFF777FF3AE0D2
:103E6000CB88012B35D190F89C32012B04D0022B4A
:103E700002D0032B2DD104E08260012200F1080161
:103E800016E00122011D13E090F89C22012A03D0C4
:103E9000022A01D0032A1CD1CA88022A19D1C5607E
:103EA000D0F8A41209B10321C160022200F10C0173
:103EB000FFF726FC0FE0498801290CD1C0F8A45275
:103EC00011E090F89C32012B08D0022B06D0032B76
:103ED00004D0FFF7F0FB3046BDE8F08149880129A6
:103EE000F9D1C0F8A422FFF718FCF4E72DE9F0415E
:103EF0000A46044610780027097910F060030AD0BA
:103F0000202B01D0402B50D1D4F8B4021146836845
:103F1000204698478FE0C0F34110012806D0507822
:103F2000D0B301282AD003283FD107E0D4F8B40247
:103F3000114683682046BDE8F041184794F89C027A
:103F4000022802D0032872D10AE071B380296ED012
:103F50002046FFF7AFFE80212046FFF7ABFE6AE068
:103F6000508838B931B1802904D0D08810B92046A2
:103F7000FFF7A0FE2046FFF7D0FB5CE094F89C0220
:103F80000228E2D0032852D1508898BB4806F1D0CD
:103F90002046FFF704FDEDE7FFE794F89C020026BA
:103FA000022803D0032842D112E040E009B1802961
:103FB0003DD1080601F07F0000EB800004EB80019A
:103FC00001D5143101E001F5AA7102220E602AE048
:103FD000080601F00F0000EB800004EB80000AD51A
:103FE000806920B301F07F0000EB800004EB8005C6
:103FF00014350BE01FE0D0F85801C0B101F07F008C
:1040000000EB800004EB800505F5AA7541B180291D
:1040100006D02046FFF7B2FD10B10120286000E075
:104020002E60022229462046FFF76AFB03E0114674
:104030002046FFF740FB3846BDE8F08170B50546E5
:1040400008780C4610F0600003D0202801D04028EA
:1040500016D195F89C02012803D0022801D003282C
:104060000ED1207901280BD8D5F8B40282682846F1
:104070009047E188014306D12846FFF74EFB02E056
:104080002846FFF718FB002070BD704700487047B6
:10409000F00C00202DE9F0470C78002630F8243091
:1040A00048F68F121340CA78002A7DD0012A7CD0AE
:1040B000022A02D0032A7FD0012648F2800213434D
:1040C00020F824300D7830F8254048F68F731C40D6
:1040D0002C43144320F825400D7B48F2C00C48F6D1
:1040E000BF744CF280074BF68F79EDB391F80080E6
:1040F000C24630F8285048F280181D4045EA0805AD
:1041000020F82A50B0F8505091F80080054405EB93
:104110000815B1F8088028F00108A5F80084B0F867
:10412000505091F80080054405EB0815B1F80A805D
:1041300028F00108A5F808844D78002D0D7830F896
:1041400025804FEA48487DD0B8F1000F07DA30F8F3
:10415000258008EA030848EA070820F825800F7838
:1041600030F827506D0600E02CE006D530F82750D7
:104170001D4045EA0C0520F82750CB780D78012B1F
:1041800030F8253003EA040301D083F02003134301
:1041900020F825300B7830F8231001EA090111438B
:1041A00020F82310304602E003E008E004E0BDE818
:1041B000F08743F4007380E743F4C0637DE743F482
:1041C00080637AE74D782DB3B0F850500F780544EE
:1041D00005EB0715CF8827F00107A5F800740F78C5
:1041E00030F827506D0606D530F827501D4045EAB7
:1041F0000C0520F82750CB78012B06D00B7830F82F
:104200002310214081F02001C9E70B7830F82310FA
:104210002140C4E7B0F850400D78044404EB051485
:10422000CD8825F00105A4F80854B0F850400D7869
:10423000044404EB05140D6904F20C4475B13E2DE1
:1042400014D800E030E04FEA550CED0701D00CF136
:10425000010C4FF6FF7505EA8C2511E0258825F441
:10426000F8452580258845F4004509E04FEA551CAE
:10427000ED0601D1ACF1010C4FF4004545EA8C2567
:1042800025800D7830F82540640405D530F82540A8
:104290001C403C4320F825400B7830F8231001EAFD
:1042A000090181F440517AE7B8F1000F07DA30F8DC
:1042B000258008EA030848EA070820F825800F78D7
:1042C00030F827506D0606D530F827501D4045EAD6
:1042D0000C0520F827500D7830F8253003EA090343
:1042E00083F44053134320F825308EE700207047B5
:1042F0002DE9F04391F80C804F780A7848F6BF7C9E
:104300004BF68F7948F2800348F2C0054CF28006E4
:1043100048F68F74B8F1000F28D0002F30F82270C3
:104320004FEA474748D0002F05DA30F8227027407F
:10433000374320F822700A7830F822707F0605D5BE
:1043400030F8227027402F4320F822700D7830F883
:1043500025202240324320F825200C7830F82420F4
:1043600002EA0C021A4320F824201AE07FB130F848
:104370002260760605D530F8226026402E4320F8CC
:1043800022600A7830F8221001EA0C010EE030F8C1
:1043900022506D0405D530F822502540354320F8D1
:1043A00022500A7830F8221001EA0901194320F856
:1043B00022100020BDE8F083002F05DA30F82270CB
:1043C0002740374320F822700A7830F822607606BA
:1043D00005D530F8226026402E4320F822600E7862
:1043E00030F8262022402A4320F826200C7830F886
:1043F000242002EA09021A4320F82420C1E7002001
:10440000704700207047012120F8401F00210180E3
:10441000818001820846704730F8401F21F43F41F7
:104420000180002070470020704730B50A7BB2BB86
:104430004A7848F68F7548F28004C2B10B7830F89C
:104440002320520607D530F823202A4048F2C00521
:104450002A4320F82320CA78012A20D00A7830F88D
:10446000221048F6BF73194081F0200114E00A7849
:1044700030F822305B0407D530F822302B404CF264
:1044800080052B4320F822300A7830F822104BF6B2
:104490008F73194081F44051214320F822100020ED
:1044A00030BD10B54A780978002A48F2800330F808
:1044B000212005D048F6BF74224082F0100204E0AB
:1044C0004BF68F74224082F480521A4320F8212048
:1044D000002010BD2DE9F0470E464B78097B0446BD
:1044E0004FF0000948F68F7248F2800A4FF6FF77C6
:1044F0004FF40048012B09D000296ED0F078022833
:104500006CD001286BD00120BDE8F087B569306917
:10451000854200D90546C9B1F17848F280130229D5
:1045200023D0317834F821001040184324F82100BA
:10453000306A401B3062307834F8201049067178B8
:104540007ED500297DD001297CD03FE1ABB2F28835
:104550002046716900F0F6FAB4F850003178204432
:1045600000EB0110A0F80454EAE0316A81426AD9F4
:10457000317834F821001040184324F82100306AC3
:10458000401B3062307834F82010490671786CD5C1
:1045900011B1012924D02AE0B4F85010214401EBD4
:1045A000001000F20C404DB13E2D0FD86908EA070B
:1045B00000D0491C07EA8121018018E0018821F41C
:1045C000F8410180018841F40041F5E76909EA06F4
:1045D00000D1491E48EA8121EEE79CE1BCE126E2D8
:1045E000B4F85020111901EB0010A0F80C54728996
:1045F000ABB22046716900F0A5FA70692844706179
:104600003169306A884202D9401B306202E00546B7
:10461000C6F82090707800287CD1B4F8500031782A
:10462000204400EB011000F204406DB13E2D13D880
:104630006908EA0700D0491C07EA8121018012E0DD
:1046400001E19BE0BBE084E0018821F4F8410180B6
:10465000018841F40041F1E76909EA0600D1491EE9
:1046600048EA8121EAE7328965E011B1012921D0C8
:1046700027E0B4F85010214401EB001000F2044090
:104680004DB13E2D0FD86908EA0700D0491C07EA52
:104690008121018015E0018821F4F8410180018821
:1046A00041F40041F5E76909EA0600D1491E48EAEC
:1046B0008121EEE7B4F85010214401EB0010A0F87E
:1046C00004543289ABB22046716900F03BFA70693C
:1046D000284470613169306A884202D9401B3062D7
:1046E00002E00546C6F82090707800287ED1B4F824
:1046F00050003178204400EB011000F20C4055B11D
:104700003E2D10D86908EA0700D0491C07EA81212C
:1047100001800FE072E0018821F4F84101800188F6
:1047200041F40041F4E76909EA0600D1491E48EA6C
:104730008121EDE77289ABB22046716900F002FA7F
:10474000317834F8210048F6BF72104080F0300014
:10475000C0E1327834F8220048F68F63184040EA0E
:104760000A0024F82200B4F850003278204400EB0C
:1047700002108BB2A0F804343289DDE7B4F850108F
:10478000214401EB001000F20C404DB13E2D0FD83A
:104790006908EA0700D0491C07EA8121018015E079
:1047A000018821F4F8410180018841F40041F5E7D6
:1047B0006909EA0600D1491E48EA8121EEE7B4F80A
:1047C0005020111901EB0010A0F80C547289ABB203
:1047D0002046716900F0B6F970692844706131694A
:1047E000306A884203D9401B306203E06EE0054620
:1047F000C6F82090002DA3D0707858B101287FF41E
:104800001EAFB4F850003178204400EB0110A0F83E
:10481000045428E7B4F850003178204400EB01112B
:1048200001F204413E2D06D86808EA0700D0401C7A
:1048300007EA802005E06809EA0600D1401E48EA40
:10484000802008800FE711B1012921D027E0B4F8BA
:104850005010214401EB001000F204404DB13E2DF8
:104860000FD86908EA0700D0491C07EA81210180B6
:1048700015E0018821F4F8410180018841F40041EC
:10488000F5E76909EA0600D1491E48EA8121EEE709
:10489000B4F85010214401EB0010A0F80454328900
:1048A000ABB22046716900F04DF97069284470611F
:1048B0003169306A884202D9401B306202E0054605
:1048C000C6F82090002D96D0707858B101287FF45A
:1048D00020AFB4F850100819317800EB0110A0F89F
:1048E0000C5427E7B4F850003178204400EB011154
:1048F00001F20C413E2D06D86808EA0700D0401CA2
:1049000007EA802005E06809EA0600D1401E48EA6F
:10491000802008800EE7B1693069814202D9091A06
:10492000B161B5E00846C6F81890B1E0088820F4F7
:10493000F8400880088840F400400BE03E2875D815
:104940004208C00700D0521C07EA822002E000BFE4
:1049500048EA82200880B5E093B9B4F85000317875
:10496000204400EB0110316900F2044069B13E2996
:1049700013D84B08C90700D05B1C07EA83210180CC
:10498000707888B1012832D03AE0018821F4F841EA
:104990000180018841F40041F1E74B09C90600D1CB
:1049A0005B1E48EA8321EAE7B4F8500031782044DE
:1049B00000EB0110316900F20C4049B13E290FD8DB
:1049C0004B08C90700D05B1C07EA8321018017E070
:1049D000018821F4F8410180018841F40041F5E7A4
:1049E0004B09C90600D15B1E48EA8321EEE7B4F803
:1049F00050100819317800EB0110318AA0F80C141E
:104A0000F069A8B3317834F82100430401D5430696
:104A100003D444F24003184254D134F8210010402A
:104A200048F2C002104324F821004BE03CE0B16999
:104A30003069814202D9091AB16102E00846C6F81C
:104A400018908BB9B4F850103278214401EB021160
:104A500001F2044168B13E2813D84208C30700D0D0
:104A6000521C07EA82220A80717889B1012921D07B
:104A700028E00A8822F4F8420A800A8842F40042B8
:104A8000F1E74209C30600D1521E48EA8222EAE752
:104A9000B4F850103278214401EB021101F20C41BC
:104AA00000287FF44BAF41E74209C0067FF450AFC6
:104AB000521E4DE7B4F850201119327801EB021163
:104AC000A1F80C04317834F821004BF68F721040B5
:104AD00080F4405040EA0A0024F82100002013E549
:104AE0000021A0F844104FF43F41A0F840100020EE
:104AF000704700000148FCF73ABD00001C0D002083
:104B0000B0F844007047000010B500EB42005C08AC
:104B100000F5806009D000BF30F8042B01F8012BAC
:104B2000120A01F8012B641EF6D1DA0701D00088C1
:104B3000087010BD0020704711B98021A0F84C10FA
:104B40000020704710B55B1C00EB42005B0800F5CD
:104B5000806009D011F8012B11F8014B42EA0422C0
:104B600020F8042B5B1EF5D110BDFEE70907090EE6
:104B7000002804DB00F1E02080F80014704700F00A
:104B80000F0000F1E02080F8141D704738B50A4C82
:104B900015200A25A0700123A21C122107480095A8
:104BA000FCF75CF80123621C122104480095FBF716
:104BB00033FF607838BD000000000020640600204C
:104BC00070B52C4D4FF0FF302B4E0024E86034B10F
:104BD000012C07D0022C11D0032C08D111E00122A6
:104BE000114601E0012202213046FBF746FE10216A
:104BF0003046FBF73DFE38B1601C1BE0012204216A
:104C0000F2E701220821EFE720213046FBF730FED2
:104C100008B1601D0EE040213046FBF729FE10B1BF
:104C200004F1090006E080213046FBF721FE10B1B7
:104C300004F10D00E860002201213046FBF71DFE63
:104C4000002202213046FBF718FE002204213046E4
:104C5000FBF713FE002208213046FBF70EFEE86842
:104C6000401C02D1641C042CB1DBBDE870400A205A
:104C7000FBF7FCBC000000200008014086B0FCF7F8
:104C8000B9F8FEF711FAFDF741FFFEF753F889482E
:104C9000416941F0010141614069002200F00100D9
:104CA000009011460C20FCF703F90C20FCF7F2F8F9
:104CB000002211460F20FCF7FBF80F20FCF7EAF862
:104CC000FEF702F8FDF77EFF7C487B490025016076
:104CD0007B49C0E901154FF48041C0E903514561AA
:104CE0008561C5610562FBF7D3FD08B172B6FEE7C9
:104CF000FDF7B4FF00F0F4F8724C002201212046C9
:104D0000FBF7BBFD002202212046FBF7B6FD002287
:104D100004212046FBF7B1FD002208212046FBF7C5
:104D2000ACFD012251036848FBF7A7FD674900204D
:104D300088460D54401C1128FADB6420FBF796FCD2
:104D4000634C40F221194FF0020A4FF4967B00BFEA
:104D5000FFF71CFF6061A1690144A161E069401C8B
:104D6000E061052805DB052091FBF0F0C4E9075060
:104D7000A561206A5A2802DD0120606205E0502802
:104D800001DA65620CE0606A50B1002664231A46BD
:104D90001946304600F0C4F8761C0A2EF6DB09E00E
:104DA000002600231A461946304600F0B9F8761C52
:104DB0000A2EF6DB474A4B46082102F5AD60FDF7A7
:104DC00037FB434F0026FF1C3046BB787A78397892
:104DD00000F0EEF8761C0A2EF6DB3F4A4B4608211F
:104DE00002F2DE20FDF724FBFFF7EAFEE068FBF7A6
:104DF000DFFAE0602169884259D0411C57D00E2863
:104E000004D00F2818D0102823D040E021780229A0
:104E10003DD95E465846FBF78DFA6420FBF726FC29
:104E20003046FBF787FA84F800A0002041460D5475
:104E3000401C1128FBDB3AE02178022927D958468B
:104E4000FBF778FA2078401EC0B2207008F80050B6
:104E50002DE0217802291AD95846FBF76BFA032076
:104E600088F8000020784146801E88F8010084F808
:104E700000A000206A460B5C13540D54401C1128FE
:104E8000F9DB112269461548FEF778FB0FE021781F
:104E900011290CD20E280AD00F2808D0102806D0CD
:104EA00008F80100491C21706420FBF743FAE06810
:104EB00020614DE7001002400054004064060020CD
:104EC000A08601000008014000100140900700206A
:104ED00000000020E0010020220400202C08002017
:104EE00030B50E490020034601F2422221F810306D
:104EF00022F81030401C3028F8DB30201A244FF400
:104F0000907500BF21F8104022F81030401CA842D4
:104F1000F8DBA1F84032A2F8403230BDE0010020B9
:104F2000F0B500EB4000302404EBC0050120412621
:104F30001E4C4FF0000C1A27CCF1070E00FA0EFEA3
:104F40001EEA020F05EB0C0E02D024F81E6001E0F1
:104F500024F81E700CF1010CBCF1080FECDB0022F0
:104F6000C2F1070E00FA0EFC1CEA010F05EB020C61
:104F700004EB4C0C02D0ACF8106001E0ACF81070FF
:104F8000521C082AECDB0021C1F1070200FA02F2F0
:104F90001A4205EB010204EB420201D0168400E044
:104FA0001784491C0829EFDBF0BD0000E001002058
:104FB000F0B500EB4000302404EBC0050120412691
:104FC0001E4C4FF0000C1A27CCF1070E00FA0EFE13
:104FD0001EEA020F05EB0C0E02D024F81E6001E061
:104FE00024F81E700CF1010CBCF1080FECDB002260
:104FF000C2F1070E00FA0EFC1CEA010F05EB020CD1
:1050000004EB4C0C02D0ACF8106001E0ACF810706E
:10501000521C082AECDB0021C1F1070200FA02F25F
:105020001A4205EB010204EB420201D0168400E0B3
:105030001784491C0829EFDBF0BD00002204002082
:105040000000000000000000010203040607080938
:105050000000000001020304785000080000002056
:10506000E00100002801000864510008E001002070
:105070008814000084010008B2025AFF01011432B2
:105080000182101324F41359371B0891041A9D044C
:105090001AC1041AF5041A31041A65041704030925
:1050A000041201295B1640830450571D02010203BC
:1050B00041031A1A031206100BFF0901A101850111
:1050C0000901151326FF2F75089503B1820F1008EB
:1050D000918285020902151B250A141A0114190E62
:1050E00019141C030903102808108182850409047F
:1050F0001A04278182C0228814206F031B086B04C6
:105100001A75048113193514088D341B08A9084138
:105110001AC50C1A5B041A6904C11A01201AF51485
:105120001A0D081AE9081409022913010125C032D1
:1051300009042A02E515092111011401226C160740
:10514000058103022D2007050107291A091E2C4A93
:10515000052C0A22052CA958691A31130A063202B5
:0451600033400100D7
:04000005080000ED02
:00000001FF
